:020000040800F2
:1000000000000220252A0008E11B0008E31B00086D
:10001000E51B0008E71B0008E91B000800000000C2
:10002000000000000000000000000000EB1B0008C2
:10003000ED1B000800000000EF1B0008F11B00088A
:10004000752A0008752A0008752A0008752A000814
:10005000752A0008752A0008752A0008752A000804
:10006000752A0008752A0008752A0008752A0008F4
:10007000752A0008752A0008752A0008752A0008E4
:10008000752A0008752A0008752A0008000000007B
:10009000000000000000000000000000752A0008B9
:1000A000752A0008752A0008752A0008752A0008B4
:1000B000752A0008752A0008752A0008752A0008A4
:1000C000752A0008752A0008752A0008752A000894
:1000D000752A0008752A0008F51B000800000000BA
:1000E000752A0008752A0008752A0008000000001B
:1000F000000000000000000000000000752A000859
:1001000000000000752A0008752A0008752A0008FA
:1001100000000000000000000000000000000000DF
:10012000752A0008752A0008752A0008752A000833
:10013000752A000800000000000000000000000018
:10014000000000000000000000000000752A000808
:10015000752A0008752A0008752A0008752A000803
:10016000752A0008752A0008000000000000000041
:10017000000000000000000000000000000000007F
:1001800000000000752A00080000000000000000C8
:08019000752A0008752A000819
:1001A00010B5054C237833B9044B13B10448AFF3B1
:1001B00000800123237010BDB80000200000000063
:1001C0009439000808B5034B1BB103490348AFF34A
:1001D000008008BD00000000BC0000209439000829
:1001E000034613F8012B002AFBD1181A0138704777
:1001F00001F0FF01102A2BDB10F0070F08D010F8D8
:10020000013B013A8B422DD010F0070F42B3F6D1DB
:10021000F0B441EA012141EA014122F007047FF0F4
:1002200000070023F0E80256083C85EA010586EA4B
:10023000010685FA47F5A3FA87F586FA47F6A5FA87
:1002400087F68EB9EED1F0BC01F0FF0102F0070293
:1002500032B110F8013B013A83EA010313B1F8D13E
:100260000020704701387047002D06BF354603381F
:10027000073815F0010F07D1013015F4807F02BF58
:10028000013015F4C03F0130F0BC0138704700BFA9
:1002900053B94AB9002908BF00281CBF4FF0FF31ED
:1002A0004FF0FF3000F07AB9ADF1080C6DE904CEE3
:1002B00000F006F8DDF804E0DDE9022304B0704741
:1002C0002DE9F0478C460D460446089E002B51D17F
:1002D0008A4217466DD9B2FA82FEBEF1000F0BD0EA
:1002E000CEF1200C01FA0EF520FA0CFC02FA0EF702
:1002F0004CEA050C00FA0EF44FEA174A250CBCFB39
:10030000FAF81FFA87F90AFB18CC45EA0C4508FBF6
:1003100009F3AB420AD9ED1908F1FF3280F02381CD
:10032000AB4240F22081A8F102083D44ED1AA4B28C
:10033000B5FBFAF00AFB105544EA054400FB09F945
:10034000A14509D9E41900F1FF3380F00A81A145E4
:1003500040F2078102383C44A4EB090440EA08401B
:100360000021002E61D024FA0EF400233460736063
:10037000BDE8F0878B4207D9002E54D0002186E8D3
:1003800021000846BDE8F087B3FA83F1002940F068
:100390008E80AB4202D3824200F2FA80841A65EB6F
:1003A00003050120AC46002E3FD086E81010BDE8C2
:1003B000F08712B90127B7FBF2F7B7FA87FEBEF153
:1003C000000F34D1EB1B3A0C1FFA87FC0121B3FB61
:1003D000F2F8250C02FB183345EA03450CFB08F341
:1003E000AB4207D9ED1908F1FF3002D2AB4200F25F
:1003F000D1808046ED1AA3B2B5FBF2F002FB105596
:1004000043EA05440CFB00FCA44507D9E41900F1BC
:10041000FF3302D2A44500F2B8801846A4EB0C04C6
:1004200040EA08409DE731463046BDE8F087CEF10E
:10043000200405FA0EF307FA0EF720FA04F83A0C36
:1004400025FA04F448EA0308B4FBF2F14FEA184530
:1004500002FB11441FFA87FC45EA044501FB0CF33B
:10046000AB4200FA0EF409D9ED1901F1FF3080F02A
:100470008A80AB4240F2878002393D44EB1A1FFA72
:1004800088F5B3FBF2F002FB103345EA034500FBAD
:100490000CF3AB4207D9ED1900F1FF386FD2AB4234
:1004A0006DD902383D44EB1A40EA01418FE7C1F1B2
:1004B000200722FA07F88B4005FA01F448EA030303
:1004C00020FA07FE4FEA134CFD404EEA040EB5FB3E
:1004D000FCF94FEA1E440CFB19551FFA83F844EA55
:1004E000054509FB08F4AC4202FA01F200FA01FAF0
:1004F00008D9ED1809F1FF3043D2AC4241D9A9F136
:1005000002091D442D1B1FFA8EFEB5FBFCF00CFBEF
:1005100010554EEA054400FB08F8A04507D9E41839
:1005200000F1FF3529D2A04527D902381C4440EA02
:100530000940A4EB0804A0FB02894C45C6464D4681
:1005400015D312D056B1BAEB0E0364EB050404FACE
:1005500007F7CB401F43CC40376074600021BDE8F3
:10056000F0871846F8E69046E0E6C245EAD2B8EBD6
:10057000020E69EB03050138E4E72846D7E7404659
:1005800091E78146BEE7014678E702383C4445E7FB
:10059000084608E7A8F102083D442BE7704700BF72
:1005A00038B50E4A0E4B054618784FF47A73B3FBF4
:1005B000F0F31068B0FBF3F000F096F8044658B979
:1005C0000F2D09D8024629464FF0FF3000F04AF8B7
:1005D000044B20461D6038BD012038BD200000209E
:1005E000000000200400002008B50B4B1A6842F4FC
:1005F00000721A601A6842F480621A601A6842F443
:1006000080721A60032000F01BF80020FFF7C8FF7B
:1006100001F050FA002008BD003C0240034A044BA0
:1006200011681B780B441360704700BF0401002061
:1006300000000020014B1868704700BF0401002033
:10064000074AD36823F4E0631B041B0C43F0BF6329
:10065000000243F4003300F4E0600343D3607047CA
:1006600000ED00E0174B30B5DC68C4F30224C4F1A0
:100670000703251D042B28BF0423062D4FF0010579
:1006800005FA03F303F1FF338CBF033C0024194048
:10069000A14005FA04F4013C2240002842EA01028C
:1006A0004FEA0212ADBF00F1604000F00F00064BB0
:1006B00000F56140B5BFD2B2D2B21A5480F800231F
:1006C00030BD00BF00ED00E014ED00E0002808DBC5
:1006D0004209012300F01F0003FA00F0014B43F828
:1006E0002200704700E100E00138B0F1807F0AD2BB
:1006F000064B074A5860F02182F823100020072299
:1007000098601A6070470120704700BF10E000E059
:1007100000ED00E090F83530022B03D080234365D4
:10072000012070470268052380F83530136823F0F4
:1007300001031360002070472DE9F04F85B00B686E
:10074000DFF89C81644A01934FF001090023019C6A
:1007500009FA03F707EA0406B74240F0AD804C6897
:1007600024F0100ABAF1020F16D14FEAD30C00EBB5
:100770008C0C03F0070BDCF820504FEA8B0B4FF08A
:100780000F0E0EFA0BFE25EA0E0E0D6905FA0BF59B
:1007900045EA0E05CCF820504FEA430C0325D0F86B
:1007A00000B005FA0CF5ED4304F0030E0BEA050B5F
:1007B0000EFA0CFE0AF1FF3A4EEA0B0EBAF1010FE7
:1007C0000095C0F800E015D8D0F808E005EA0E0E54
:1007D000CD6805FA0CFA4AEA0E0EC0F808E0D0F827
:1007E00004E02EEA0707C4F3001E0EFA03FE4EEAE9
:1007F00007074760C768009D3D408F6807FA0CF700
:100800003D43C560E50057D54FF0000BCDF80CB067
:10081000D8F84470314D47F48047C8F84470D8F890
:10082000447007F480470397039F23F0030707F101
:10083000804707F59C3703F0030CD7F808A04FEA70
:100840008C0C4FF00F0E0EFA0CFEA8422AEA0E0E88
:1008500039D005F58065A84237D005F58065A842F6
:1008600035D005F58065A84233D005F58065A842EE
:1008700014BF0725042505FA0CF545EA0E05BD60F1
:100880001568F74314F4803F0CBF3D4035431560B5
:10089000556814F4003F0CBF3D40354355609568E2
:1008A00014F4801F0CBF3D4035439560D568A40209
:1008B00054BF3D403543D5600133102B7FF447AF23
:1008C00005B0BDE8F08F5D46D5E70125D3E70225E9
:1008D000D1E70325CFE700BF003C01400000024004
:1008E000003802400AB1816170470904FBE700004B
:1008F0002DE9F341044618B9012002B0BDE8F081AA
:100900000368DD0710D42368980758D423681A07B2
:1009100000F19A8023685B0700F1B880A269002A81
:1009200040F019810020E8E7A64B9A6802F00C021B
:10093000042A07D09A6802F00C02082A0AD15B68E0
:10094000590207D59F4B1B689A03DCD56368002BBF
:10095000D9D1D1E763689B4DB3F5803F11D12B68A6
:1009600043F480332B60FFF765FE964D06462B68F7
:100970009B03C8D4FFF75EFE801B6428F7D90320D1
:10098000BBE7B3F5A02F04D12B6843F480232B6081
:10099000E5E72A6822F480322A602A6822F480225D
:1009A0002A60002BDFD1FFF745FE06462B689F0328
:1009B000A9D5FFF73FFE801B6428F7D9DFE7814BFD
:1009C0009A6812F00C0F07D09A6802F00C02082AFD
:1009D00011D15B685E020ED47A4B1A68950702D576
:1009E000E268012A88D11A68216922F0F80242EAF5
:1009F000C1021A608AE7E268734BB2B101221A6041
:100A0000FFF718FE6F4D06462B68980707D52B6831
:100A1000226923F0F80343EAC2032B6076E7FFF76D
:100A200009FE801B0228EFD9A9E71A60FFF702FE32
:100A3000644D06462B6899077FF568AFFFF7FAFD0E
:100A4000801B0228F6D99AE76269604B7AB10122CD
:100A50001A60FFF7EFFD5B4D06466B6F9F073FF592
:100A600059AFFFF7E7FD801B0228F6D987E71A6028
:100A7000FFF7E0FD534D06466B6F98077FF54AAFD1
:100A8000FFF7D8FD801B0228F6D978E74D4B1A6C8A
:100A900012F0805228D101921A6C42F080521A64EE
:100AA0001B6C03F080530193019B0126484D2B687A
:100AB000D9051BD5A368434D012B27D12B6F43F0DC
:100AC00001032B67FFF7B6FD3E4D074641F288381C
:100AD0002B6F9B0739D5002E3FF420AF394A136C9A
:100AE00023F08053136419E70026DFE72B6843F4F3
:100AF00080732B60FFF79EFD07462B68DA05D9D47B
:100B0000FFF798FDC01B0228F7D938E7052B04D161
:100B10002B6F43F004032B67D0E72A6F22F001020A
:100B20002A672A6F22F004022A67002BCAD1FFF736
:100B300081FD41F2883807462B6F9807CBD5FFF728
:100B400079FDC01B4045F7D919E7FFF773FDC01BBE
:100B50004045BDD913E71B4DAB6803F00C03082BD0
:100B60003FF4CAAE1B4E0023022A336034D1FFF794
:100B700061FD07462B6899011ED4226AE36913437D
:100B8000626A43EA8213E26A43EA0263A26A0D4C94
:100B90005208013A43EA02436B6001233360FFF7D6
:100BA00049FD054623689A013FF5BCAEFFF742FDBB
:100BB000401B0228F6D9E2E6FFF73CFDC01B0228E5
:100BC000D8D9DCE60038024000004742800E474298
:100BD0000070004060004742FFF72CFD04462B6880
:100BE0009B017FF59FAEFFF725FD001B0228F6D97C
:100BF000C5E600BF134908B58B6803F00C03042B4E
:100C000003D0082B03D0104808BD104808BD4A681F
:100C10004B68496813F4800314BF0C480A48C1F3B9
:100C2000881118BF002302F03F02A1FB0001FFF76B
:100C30002FFB044B5B68C3F3014301335B00B0FB44
:100C4000F3F008BD003802400024F40000127A00DE
:100C50002DE9F0410D46044610B90120BDE8F081B0
:100C6000444B1A6802F00F028A4228D321688F078A
:100C70002DD4C80740D43F4B1A6802F00F029542AA
:100C800066D3226851076CD4130707D53A4A216905
:100C9000936823F4604343EAC1039360FFF7AAFF1C
:100CA000354B364A9B68C3F30313D35CD840344BAF
:100CB00018600020FFF774FC0020BDE8F081CAB284
:100CC0001A701B6803F00F039942C6D1CEE72A4B76
:100CD00011F0040F1EBF9A6842F4E0529A600E07AA
:100CE00042BF9A6842F460429A609A68A06822F013
:100CF000F00202439A60BCE762681F4B012A1DD1D3
:100D00001B6813F4003FA8D01B4EB36823F0030305
:100D10001343B360FFF78EFC41F288380746B3688F
:100D2000626803F00C03B3EB820FA4D0FFF782FCE0
:100D3000C01B4045F3D90320BDE8F081911E012975
:100D40001B6802D813F0007FDDE713F0020FDAE72B
:100D5000EAB21A701B6803F00F039D427FF47DAF67
:100D60008FE70549E0688B6823F4E05303438B6009
:100D70008AE700BF003C024000380240D23A000837
:100D800020000020044B054A9B68C3F38223D35CF8
:100D9000034A1068D840704700380240E23A000821
:100DA00020000020044B054A9B68C3F34233D35C08
:100DB000034A1068D840704700380240E23A000801
:100DC00020000020F8B504460E4615461F4621684F
:100DD0008A6836EA020301D00020F8BD6B1CF7D008
:100DE000FFF728FCC01B8542F1D823685A6822F01F
:100DF000E0025A606268B2F5827F0AD1A268B2F559
:100E0000004F02D0B2F5806F03D11A6822F0400281
:100E10001A60A26AB2F5005F07D11A6822F4005284
:100E20001A601A6842F400521A60012384F85130A3
:100E3000002384F850300320F8BD000073B513463A
:100E4000134A144E15684268B5FBF6F64FF47A75EE
:100E50007543B2F5827F044601950DD10A46802183
:100E6000FFF7B0FF10B9002002B070BD636D43F012
:100E7000200363650320F7E7019B002BF3D0019B60
:100E8000013B019323689B681B06F5D4EBE700BF89
:100E90002000002000366E0110B50446002836D030
:100EA0000023836290F8513003F0FF021BB980F8F1
:100EB000502000F01FFE2168A068A269022384F878
:100EC00051300B6823F040030B6063680343E06814
:100ED00003432069034360690343E0690343206AD5
:100EE0000343A06A034302F4007003430B60120C37
:100EF000636A02F004021A434A60CB6923F4006378
:100F0000CB6100200123606584F8513010BD0120C1
:100F100010BD2DE9F7431E4690F850300A9F012B73
:100F200004460D46914600F0E280012380F85030DF
:100F3000FFF780FB94F851306168DBB2012B8046EB
:100F40000AD0B1F5827F40F0D080A068002840F040
:100F5000CC80042B40F0C980002D00F0C480B9F192
:100F6000000F00F0C080002E00F0BD8094F85130DA
:100F7000C4F83890042B1CBF052384F8513000239B
:100F80006365236463642368E687E6861A68A68738
:100F9000500658BF1A68256358BF42F04002A68623
:100FA00058BF1A60E268B2F5006F58D109B1012E3E
:100FB00007D135F8022BDA60E38E2563013B9BB243
:100FC000E3860125E38E9BB2ABB9E38F9BB293B965
:100FD000424639462046FFF731FF002840F0818025
:100FE000A368002B32D123680190DA6801929B68D4
:100FF0000193019B2AE02268936899070DD5E38E3F
:101000009BB253B14DB1236B33F8021BD160236304
:10101000E38E013B9BB2E38600259368DB070CD58A
:10102000E38F9BB24BB1A36BD26823F8022BA3636F
:10103000E38F013B9BB2E3870125FFF7FBFAA0EBAF
:1010400008008742BED87E1CBCD00320012384F850
:101050005130002384F8503003B0BDE8F08309B16B
:10106000012E08D12A781A73236B01332363E38E90
:10107000013B9BB2E3860125E38E9BB21BB9E38F54
:101080009BB2002BA4D02268936898070ED5E38EFC
:101090009BB25BB155B1236B1B781373236B013388
:1010A0002363E38E013B9BB2E386002522689368AD
:1010B000D9070DD5E38F9BB253B1A36BD2681A70D9
:1010C000A36B0133A363E38F013B9BB2E38701254D
:1010D000FFF7B0FAA0EB08008742CDD87B1CCBD03D
:1010E000B3E7202363650120B0E70220AEE70220CA
:1010F000B2E70368DA6822F49072DA605A6922F083
:1011000001025A61202380F83A3070472DE9F047F8
:101110000668C2683369C16923F4405313433361DD
:10112000044683680069F2680343606922F416424A
:10113000034322F00C020B431343F3607369A2696B
:1011400023F440731343B1F5004F73617A4B7CD1A4
:101150009E4203D003F580639E4244D1FFF722FEF6
:10116000192505FB00F360684FF064094000B3FBEC
:10117000F0F3B3FBF9F34FEA0318FFF713FE6368CC
:1011800068435B00B0FBF3F7FFF70CFE636868434E
:101190005B00B0FBF3F3B3FBF9F309FB1373DB0064
:1011A0003233B3FBF9F35B0003F4F877FFF7FAFD92
:1011B000626868435200B0FBF2FAFFF7F3FD636820
:1011C00068435B00B0FBF3F3B3FBF9F309FB13A334
:1011D000DB003233B3FBF9F303F0070343443B4432
:1011E000B360BDE8F087FFF7CDFD192505FB00F3DF
:1011F00060684FF064094000B3FBF0F3B3FBF9F310
:101200004FEA0318FFF7BEFD636868435B00B0FB5D
:10121000F3F7FFF7B7FD636868435B00B0FBF3F3D8
:10122000B3FBF9F309FB1373DB003233B3FBF9F3C0
:101230005B0003F4F877FFF7A5FD6268684352008E
:10124000B0FBF2FAFFF79EFDB9E79E4202D03B4B9E
:101250009E4240D1FFF7A6FD676819254FF064094B
:1012600005FB00F3BF00B3FBF7F3B3FBF9F31F017A
:10127000FFF798FD636868439B00B0FBF3F8FFF746
:1012800091FD636868439B00B0FBF3F3B3FBF9F394
:1012900009FB13831B013233B3FBF9F303F0F008AE
:1012A000FFF780FD626868439200B0FBF2FAFFF737
:1012B00079FD636868439B00B0FBF3F3B3FBF9F37C
:1012C00009FB13A31B013233B3FBF9F303F00F0344
:1012D00043EA080383E7FFF755FD676819254FF0D8
:1012E000640905FB00F3BF00B3FBF7F3B3FBF9F3AD
:1012F0001F01FFF747FD636868439B00B0FBF3F8ED
:10130000FFF740FD636868439B00B0FBF3F3B3FB5A
:10131000F9F309FB13831B013233B3FBF9F303F039
:10132000F008FFF72FFD626868439200B0FBF2FA05
:10133000FFF728FDBDE700BF001001400014014089
:10134000F8B504460E4617461D4621680B6836EA76
:10135000030301D10020F8BD6B1CF7D095B92368B9
:10136000DA6822F4D072DA605A6922F001025A6116
:10137000202384F8393084F83A30002384F8383058
:101380000320F8BDFFF756F9C01B8542DDD2E6E722
:1013900010B5044640B390F8393003F0FF021BB992
:1013A00080F8382000F0DCFB2268242384F83930F0
:1013B000D36823F40053D3602046FFF7A7FE2368C9
:1013C0001A6922F490421A615A6922F02A025A617B
:1013D000DA6842F40052DA6000202023E06384F8E7
:1013E000393084F83A3010BD012010BD2DE9F041AC
:1013F0001F4690F83930202B04460D4690464FD1B9
:1014000000294AD0002A48D090F83830012B47D024
:10141000012380F838300023C363212380F839305A
:10142000FFF708F9A4F824800646A4F82680E38C88
:101430009BB26BB93B46324640212046FFF780FF06
:10144000B0B9202384F8393084F83800BDE8F08141
:10145000E38C013B9BB2E384A368B3F5805F324623
:101460003B464FF0800120460ED1FFF769FF10B1D7
:101470000320BDE8F0812B882268C3F30803536082
:10148000236943B90235D2E7FFF75AFF0028EFD1AD
:1014900023682A785A600135C9E70120BDE8F08148
:1014A0000220BDE8F08190F83A30202B20D1E9B13C
:1014B000E2B190F83830012B1AD0C2858285002322
:1014C0002222C36380F83A2002688162D16880F8E2
:1014D000383041F48071D160516941F001015161AE
:1014E000D16841F02001D160184670470120704753
:1014F00002207047704790F83A30222B10B536D151
:10150000836801690268B3F5805F836A23D15268FA
:10151000E9B9C2F3080223F8022B8362C48D013CAF
:10152000A4B2C4858CB90368DA6822F02002DA60BC
:10153000DA6822F48072DA605A6922F001025A6194
:10154000202380F83A3000F00BF9002010BDD2B211
:1015500023F8012BE1E721B9591C526881621A7006
:10156000DCE75268591C816202F07F02F7E7022033
:1015700010BD704703681A68D96870B5160704462D
:101580005D6907D196065AD58D0658D5BDE87040DD
:10159000FFF7B1BF15F0010502D111F4907F4ED0D5
:1015A000D30705D5CE0542BFE36B43F00103E363E8
:1015B000500704D51DB1E36B43F00203E3639307C7
:1015C00004D51DB1E36B43F00403E363160704D5B0
:1015D0001DB1E36B43F00803E363E36B002B66D0BC
:1015E000950604D5880602D52046FFF784FF2368B8
:1015F0005D69E26B1107204602D415F040051AD050
:10160000FFF777FD23685A69520610D55A69606B57
:1016100022F040025A6150B1254B0365FFF77AF87A
:10162000002844D0606BBDE87040036D1847204629
:10163000FFF79FFF70BDFFF79CFFE56370BD1606C7
:1016400027D50D0625D594F83920212A2FD1A26857
:10165000B2F5805F226A17D11188C1F30801596081
:10166000216979B902322262E28C013A92B2E284B3
:10167000EAB9DA6822F08002DA60DA6842F0400201
:10168000DA6070BD0132EEE7511C216212785A60B7
:10169000EAE750060BD54A0609D5DA6822F040027F
:1016A000DA60202384F839302046FFF723FF70BD2D
:1016B000B516000808B5806B0023C385C384FFF707
:1016C00058FF08BD002240210148FFF70BB900BFB9
:1016D00000040240012240210148FFF703B900BF86
:1016E000000402407FB50A238DF80F0000930DF12E
:1016F000170201230DF10F010248FFF70AFC07B0A2
:101700005DF804FB0C0300201FB500238DF80E309C
:10171000FF238DF80F300A2300930DF10E020123F1
:101720000DF10F010348FFF7F4FB9DF80E0005B023
:101730005DF804FB0C030020F8B5084F0E46154673
:101740000024AC4201DB2846F8BD31194FF6FF7387
:1017500001223846FFF74AFE0134F2E76403002015
:1017600070B5084D084C294601222046FFF79BFE24
:10177000294620464FF47A730122BDE87040FFF7F6
:1017800035BE00BF080100206403002070B586B09C
:10179000FFF7A0FF1849194800F0EEFE1849194854
:1017A00000F0FCFE184B02AA03F11006154618685B
:1017B0005968144603C40833B3422246F7D1294678
:1017C000012001F065F801300BD110490A230122F4
:1017D0000F48FFF70BFE06B070BD9DF80730002BD9
:1017E000F9D10DF107010F2001F052F80130F4D1C9
:1017F0000A2301220749EBE7D5160008C5160008A1
:10180000E516000809170008AC390008BC390008C3
:1018100064030020D83900081FB5194C204601F098
:10182000D3F86079029020790190E078A37862780B
:1018300021780090134801F0FDF9607A237AE2796B
:10184000A1790090104801F0F5F9607B237BE27AE2
:10185000A17A00900D4801F0EDF9607C237CE27BD9
:10186000A17B00900A4801F0E5F9607D0090237D9E
:10187000E27CA17C074801F0DDF904B010BD00BF97
:1018800008000020393A0008663A0008813A00084A
:101890009C3A0008B73A000830B595B030220021D4
:1018A00008A801F013F90021142203A801F00EF991
:1018B00000241A4B01941A6C42F080521A641B6C7B
:1018C00003F080530193019B154B02941A6842F474
:1018D00040421A601B680F9403F440430293029B3A
:1018E00001230B9310230C931093C823022511930B
:1018F00008A80423139308950E951295FEF7F8FF98
:101900000F23039303214FF4805303A804950594F8
:1019100006930794FFF79CF915B030BD00380240DC
:101920000070004070B58AB0FEF75EFEFFF7B4FFAE
:10193000142200210DEB020001F0C8F800244F4BE7
:1019400001941A6B4E484F4D42F004021A631A6B11
:1019500002F004020192019A02941A6B42F0800292
:101960001A631A6B02F080020292029A03941A6BB5
:1019700042F001021A631A6B02F001020392039A09
:1019800004941A6B42F002021A631B6B03F0020309
:10199000224604934021049BFEF7A4FF4FF400531A
:1019A000059305A9384B3948069307940126FEF79D
:1019B000C3FE402305A93248059307940894069670
:1019C000FEF7BAFE3248334A84604FF4827380E8EF
:1019D0000C004FF4007383610A23C4600461446106
:1019E000C461046244628462C362FFF755FA2A4903
:1019F000AC604FF4E13385E80A0028460C236B61A4
:101A0000EC602C61AC61EC61FFF7C2FC2348244C14
:101A100001F084F9324623492846FFF744FDFFF7D9
:101A2000B5FE2148214D00F0A1FFFFF7F5FE41F280
:101A300089321B49002000F03DF92278002AF6D0B7
:101A40002346C1B2284601F0F5F823785A2B10D16D
:101A5000174801F063F9A5232370012221460020D5
:101A600000F080FC4FF400720021204601F02EF8B7
:101A7000DDE72046FEF7B4FB0246EFE70038024000
:101A8000000402406403002000002110000802400E
:101A90000C0300200030014000440040F3390008EE
:101AA0000A0100200801002008000020123A000866
:101AB0002B3A000807B50E4B002100915A6C42F4F6
:101AC00080425A645A6C02F480420092009A01915A
:101AD0001A6C42F080521A641B6C03F0805301931D
:101AE0000720019BFEF7ACFD03B05DF804FB00BFCF
:101AF0000038024010B5044688B01422002103A823
:101B000000F0E4FF2268144B9A4222D103F584339B
:101B1000002101915A6C114842F480525A645A6C67
:101B200002F480520192019A02911A6B42F0010272
:101B30001A631B6B03F001030293029BE0230393E0
:101B4000022304930323069303A905230793FEF7B7
:101B5000F3FD08B010BD00BF00300140000002409E
:101B600010B5044688B01422002103A800F0AEFF8F
:101B70002268194B9A422CD103F5FA3300240194C0
:101B80001A6C164842F400321A641A6C02F40032DD
:101B90000192019A02941A6B42F001021A631B6BC4
:101BA00003F001030293029B0C230393022304938B
:101BB000012305930323069303A907230793FEF745
:101BC000BBFD262022462146FEF74CFD2620FEF7CF
:101BD0007DFD08B010BD00BF004400400000024081
:101BE0007047FEE7FEE7FEE7FEE770477047704785
:101BF000FEF714BD0148FFF7BDBC00BF6403002021
:101C000070B50E4615460C46A31B9D4201DC2846C6
:101C100070BDAFF3008004F8010BF5E708B50A4B7F
:101C20001968024609B909491960186869460244E9
:101C30008A4206D900F020FF0C2303604FF0FF30EA
:101C400008BD1A6008BD00BFD4000020A803002012
:101C50004FF0FF3070474FF400534B600020704747
:101C600001207047002070470F49D1F8883043F4B5
:101C70007003C1F888300D4B1A68002042F0010251
:101C80001A6098601A6822F0847222F480321A6016
:101C9000074A5A601A6822F480221A60D8604FF00E
:101CA00000638B60704700BF00ED00E00038024029
:101CB000103000242DE9F0474FF0040A4FF00108DE
:101CC0001AFB0085ED0086B0044605F540700F460E
:101CD000164600F091F81328034673D003D8002865
:101CE0007AD001255FE017280CD01C28F9D12046B6
:101CF00000F0F4FA0128054655D121463B4800F092
:101D000099FF50E005F50079484600F075F8C307E3
:101D100024D5524605A905F5406000F0C9F805F53F
:101D2000805000F069F8064605F5885000F064F828
:101D30009DF81710019100EB06209DF816100091F8
:101D400080B2029021469DF815309DF81420284855
:101D500000F070FF4146484600F07AF8204600F057
:101D600040F90028BDD0B0F5006F28BF4FF40060E7
:101D700082B23946204600F083FB051E13DD3B7816
:101D80005A2B1FFA85F812D000264645A9D0A8EB99
:101D9000060292B2B919204600F0E4FA051E0EDAE6
:101DA000204600F097F9284606B0BDE8F087A52345
:101DB0003B7042463946204600F0D4FA91E72E4463
:101DC000B6B2E2E7324621460A4800F033FF204629
:101DD00000F04EFA0546E6E732464146204600F05E
:101DE000B5F984420546DED17BE700BF0C3B000815
:101DF000EA3A00081F3B000873B5144CE368054637
:101E0000984763699847636A280C2E0A0BB1A36A46
:101E100093B9236AC0B29847236AF0B29847236AFD
:101E2000E8B29847E3699847A3690546984723694C
:101E30009847284602B070BD8DF804008DF8056003
:101E40008DF80650032101A89847EBE728000020F1
:101E5000F7B5164CE36805460E4698476369984700
:101E6000A36A45F00405280C2F0A8BB9236AC0B277
:101E70009847236AF8B29847236AE8B29847236ADA
:101E800030469847A36998472369984703B0F0BD47
:101E900004218DF804008DF805708DF806508DF83A
:101EA00007600DEB01009847ECE700BF2800002019
:101EB0002DE9F3411B4CE36805460F46164698474B
:101EC00063699847636A280C4FEA15280BB1A36A27
:101ED000D3B9236AC0B29847236A5FFA88F098475B
:101EE000E8B2236A9847013E7D1E3E44B54206D1C2
:101EF000A36998472369984702B0BDE8F081E36978
:101F0000984705F8010FF1E78DF804008DF805807A
:101F100001A88DF8065003219847636A3146384678
:101F20009847E5E7280000202DE9F3411B4CE368C2
:101F300005460F461646984763699847A36A45F0D9
:101F40000405280C4FEA1528D3B9236AC0B2984774
:101F5000236A5FFA88F09847E8B2236A9847013EFF
:101F60007D1E3E44B54206D1A36998472369984730
:101F700002B0BDE8F081236A15F8010F9847F1E738
:101F80008DF804008DF8058001A88DF80650032116
:101F90009847A36A314638469847E5E7280000206D
:101FA000F8B54601083606F50057002406F5045634
:101FB0003846FFF721FF000285B23046FFF71CFFCD
:101FC0000544ADB24DB13846FFF716FF000284B2AA
:101FD0003046FFF711FF0444A4B2AC42E8D12046DA
:101FE000F8BDF8B54601083606F51857002406F581
:101FF0001C563846FFF700FF000285B23046FFF757
:10200000FBFE0544ADB24DB13846FFF7F5FE0002C8
:1020100084B23046FFF7F0FE0444A4B2AC42E8D1EB
:102020002046F8BD2DE9F8438946144622B38700BF
:102030007D1CED0005F510584046FFF7DDFE05F567
:10204000145506462846FFF7D7FE00EB0626B6B223
:102050002246023730023444494600EBC700A4B29E
:10206000FFF762FF210A4046FFF7F2FEE1B2284681
:10207000BDE8F843FFF7ECBEBDE8F8832DE9F8436F
:102080008946144622B387007D1CED0005F52058D3
:102090004046FFF7B1FE05F5245506462846FFF7F2
:1020A000ABFE00EB0626B6B22246033730023444BC
:1020B000494600EBC700A4B2FFF7FAFE210A4046EA
:1020C000FFF7C6FEE1B22846BDE8F843FFF7C0BE01
:1020D000BDE8F8830828F8B505462CD84401083433
:1020E00004F5807710213846FFF7B2FE3846FFF737
:1020F00083FE06460028F9D11F2104F50070FFF782
:10210000A7FE0E490123AB400A88DB431BB21A40ED
:102110000A800B4A11880B4013800A4B23F8156084
:10212000094B5E5504F540742046FFF765FE002814
:10213000FAD10120F8BD4FF0FF30F8BDD8000020E3
:10214000DA000020E4000020DC00002008282DE94F
:10215000F3410446884617461D467BD8012905D021
:1021600001D3042910D96FF004000AE004220DEB1A
:1021700002014FF47060FFF79BFE019B23B96FF0E3
:10218000020002B0BDE8F081680757D42DB1B8F164
:10219000010F50D0B8F1020F53D020466601FFF76F
:1021A00099FF083625F00F0141EA08013046FFF794
:1021B0004FFE6FB9294A17887B1C9BB24FF6F0710E
:1021C0008B4209BF4FF44043138013804FF6EF77E3
:1021D000390A06F58060FFF73BFEF9B206F5A0600C
:1021E00006F58077FFF734FE01213846FFF730FE11
:1021F0003846FFF701FE0028FAD119490122A24012
:102200000B88D24312B205F001051340A5401D43CF
:10221000144B0D8019880A401A80134B23F81400C0
:10222000124B185506F540763046FFF7E5FD0028BD
:10223000FAD060B2A5E715F0210FAED16FF005001E
:102240009FE7A90601D52A06F8D5EB06A5D515F016
:10225000800FF2E74FF0FF3093E700BF240000202B
:10226000D8000020DA000020E4000020DC0000207C
:10227000082870B5054627D8440108342046FFF7E2
:10228000BBFD00F00F00012821D104F54076304657
:10229000FFF7B2FD13281DD104F5807402212046FA
:1022A000FFF7D6FD2046FFF7A7FD0028FAD13046FC
:1022B000FFF7A2FD142801D1012070BD2846FFF7C9
:1022C00009FF6FF0030070BD4FF0FF3070BD6FF07D
:1022D000040070BD6FF0020070BD0000082870B5EA
:1022E000054635D8440108342046FFF785FD00F047
:1022F0000F0001282FD104F5807608213046FFF722
:10230000A7FD3046FFF778FD0028FAD113490123D5
:1023100003FA05F20B8823EA02030B80104B1B889B
:102320002B41DA0719D404F5407604F500743046E1
:10233000FFF762FD08B9012070BD2046FFF75CFD84
:102340000307F4D52846FFF7C5FE6FF00C0070BDFB
:102350004FF0FF3070BD6FF0040070BDDA00002058
:10236000D800002008282DE9F74F06468A46144673
:1023700079D8450108352846FFF73EFD00F00F00EB
:10238000012873D1002C74D005F540794846FFF739
:1023900033FD172801D01C2837D1374A1388334121
:1023A00013F0010F904613D005F500773846FFF77C
:1023B00023FDC2062CD510213846FFF749FD012325
:1023C00003FA06F2B8F8003023EA0203A8F8003056
:1023D00005F5F850FFF710FD800280B284424FF0FF
:1023E0000107264B28BF0446B74030460193FFF74C
:1023F000D7FD83464846FFF7FFFC1728019B13D003
:102400001C2811D03046FFF765FE6FF0060002E091
:10241000030703D4002003B0BDE8F08F3046FFF778
:1024200059FE6FF00C00F6E71A883A4218D0A3451F
:10243000F0D351463046224605F58075FFF7F2FD90
:1024400020212846FFF704FD2846FFF7D5FC002889
:10245000FAD1B8F800301F43A8F800702046DAE738
:10246000A345C2D3E5E74FF0FF30D4E76FF0040097
:10247000D1E76FF00D00CEE7DA000020D800002091
:102480002DE9F74F08288046009117465CD8440193
:1024900008342046FFF7B0FC00F00F06012E56D19D
:1024A000002F57D004F5F050FFF7A6FC06FA08F607
:1024B000834604F5407904F5F85A4046FFF791FD4C
:1024C00005464846FFF798FC172832D01C2828D12B
:1024D000E5B14FEA8B2080B2874228BF0746BD4254
:1024E000284628BF384687B2009940463A4604F548
:1024F0008074FFF7C3FD40212046FFF7A9FC20466A
:10250000FFF77AFC0028FAD138460FE04046FFF783
:1025100047FD01905046FFF76FFC0199B1EB802F0A
:1025200007D14046FFF7D6FD6FF0060003B0BDE8C7
:10253000F08F0A4B1988314203D0002DC9D12846AB
:10254000F4E7002DB9D0C4E74FF0FF30EEE76FF0AD
:102550000400EBE76FF00D00E8E700BFD8000020B3
:1025600070470078704701707047002070477047CF
:102570007047704770470000054B00B121B9054A0C
:102580005A61054A9A61704758619961704700BF66
:10259000280000207525000861250008084B10B5AB
:1025A0001C88A4051A4600D4FEE700B121B9054BEA
:1025B000D361054B136210BDD861196210BD00BF15
:1025C000280000206B2500086F2500087FB5062233
:1025D00004A94FF41060FFF76BFC04220DEB02011D
:1025E0004FF48070FFF764FC02A904224FF4A0604E
:1025F000FFF75EFC042203A94FF47060FFF758FC5C
:1026000080210020FFF724FC0020FFF7F5FB04A940
:1026100006224FF41060FFF787FC04220DEB020145
:102620004FF48070FFF780FC02A904224FF4A060F1
:10263000FFF77AFC042203A94FF47060FFF774FCE3
:1026400007B05DF804FBF8B505460C46FFF7BEFF82
:1026500015B9ECB90020F8BD6E1E324607350023CF
:1026600012F8011F0B445BB2102B02DD4FF0FF305C
:10267000F8BDAA42F4D141F6087542F2080728468F
:1026800016F8011F2035FFF7E3FBBD42F7D1E0E765
:10269000651E2A460734002312F8011F0B445BB263
:1026A000102BE3DC9442F7D141F6086441F608763A
:1026B000204615F8011F2034FFF7CAFBB442F7D1BA
:1026C000C8E710B500F0F00104464FF4A850FFF73A
:1026D000BFFB210A4FF4B850BDE81040FFF7B8BB6C
:1026E00010B54FF4A850FFF787FB04464FF4B850DD
:1026F000FFF782FB000204F0F00480B2204480B2B5
:1027000010BD10B5C1B204464FF4B050FFF7A0FBA6
:10271000210A4FF4C050BDE81040FFF799BB10B537
:102720004FF4B050FFF768FB04464FF4C050FFF77A
:1027300063FB04EB002080B210BD08B54FF43850A5
:10274000FFF75AFB00F0010008BD08B54FF4385000
:10275000FFF752FB00F03800A0F130035842584117
:1027600008BD08B54FF43850FFF746FB00F07F0175
:102770004FF43850FFF76CFB4FF43850FFF73CFB39
:1027800060F07F01C9B24FF43850BDE80840FFF750
:102790005FBB08B50378012B43780CBF40210021B3
:1027A000012B09D141F038014FF43850FFF750FBAD
:1027B000BDE80840FFF7D5BFC378012B837806D169
:1027C000012B0CBF41F0180141F00801ECE7012B8F
:1027D00008BF41F01001E7E710B504464FF4385048
:1027E000FFF70AFBC0F3801300F0380020282370A5
:1027F00001D038281DD101236370A0F11003DBB292
:10280000102B18D8012202FA03F303F0013323F04E
:10281000807383B1A2700838C0B218280ED8012383
:1028200003FA00F000F0013020F4807030B1E37062
:1028300010BD0023E0E70023A370ECE70023F6E7D8
:1028400010B504464FF43850FFF7D6FA430616D5B4
:1028500000F0C701012C0CBF41F0300141F03801FC
:102860004FF43850FFF7F4FAFFF77BFF4FF438507E
:10287000FFF7C2FA012C05D110F0300F05D14FF04F
:10288000FF3010BD10F0380FF8E7002010BD000039
:1028900038B50C460F2864D8DFE800F0080C18148F
:1028A0001C20232F3B494C500A545960FFF78EFEE1
:1028B000002038BD29B108312046BDE83840FFF777
:1028C000C2BEF9E70888FFF7FCFEF1E7FFF708FF53
:1028D0002080EDE70888FFF714FFE9E7FFF71FFF07
:1028E000F6E709884FF49850090AFFF7B1FA217802
:1028F0004FF4A050FFF7ACFADAE74FF49850FFF727
:102900007BFA05464FF4A050FFF776FA00EB05205E
:10291000DEE7154B9A780A70DA784A701A798A706D
:102920005A79CA709B790B710020487138BDFFF746
:1029300018FFBDE70846FFF72CFFB9E70846FFF789
:102940004BFFB5E70878BDE83840FFF779BFFFF7E0
:10295000FCFEC0B2FF2804D02070A9E7FFF7EDFE0F
:10296000F7E74FF0FF3038BD2800002010B50146D2
:10297000044606224FF41060FFF7D6FA042204F151
:102980000E014FF48070FFF7CFFA042204F10A0120
:102990004FF4A060FFF7C8FA0422A11D4FF4706045
:1029A000FFF7C2FA064BA27C1A70E27C5A70227DB5
:1029B0009A70627DDA70034BA27D1A7010BD00BF61
:1029C000F5000020F400002010B501460446062260
:1029D0004FF41060FFF76CFA042204F10E014FF47B
:1029E0008070FFF765FA042204F10A014FF4A06039
:1029F000FFF75EFA0422A11D4FF47060FFF758FA4A
:102A0000064B1A78A2745A78E2749A78DB78637568
:102A1000034B22751B78A37510BD00BFF500002085
:102A2000F4000020DFF834D0002103E00C4B5B58A9
:102A3000435004310B480C4B42189A42F6D30B4AD0
:102A400002E0002342F8043B094B9A42F9D3FFF716
:102A50000BF900F017F8FEF765FF70470000022041
:102A6000F43B000800000020B8000020B80000205F
:102A7000A8030020FEE70000014B1868704700BF64
:102A80005400002070B50D4E0D4CA41BA410002561
:102A9000A54209D10B4E0C4C00F07CFFA41BA410E6
:102AA0000025A54205D170BD56F82530984701355F
:102AB000EEE756F8253098470135F2E7EC3B000881
:102AC000EC3B0008EC3B0008F03B000802440346E6
:102AD000934200D1704703F8011BF9E738B505466A
:102AE000002945D051F8043C0C1F002BB8BFE41856
:102AF00000F044FC1F4A1368104633B96360146049
:102B00002846BDE8384000F03ABCA3420CD9216801
:102B10006218934204BF1A685B68636004BF52186E
:102B200022600460ECE713465A680AB1A242FAD95F
:102B300019685818A0420BD12068014458188242E5
:102B40001960DDD1106852685A6001441960D7E7F6
:102B500002D90C232B60D3E7206821188A4204BFD6
:102B600011685268626004BF091821605C60C7E7A1
:102B700038BD00BFFC00002070B5CD1C25F003055A
:102B800008350C2D38BF0C25002D064601DBA94267
:102B900003D90C233360002070BD00F0EFFB234A03
:102BA0001468214691B9224C23681BB9304600F0C5
:102BB000BDF820602946304600F0B8F8431C26D105
:102BC0000C233360304600F0DAFBE4E70B685B1B54
:102BD0001AD40B2B0FD90B60CD50CC18304600F017
:102BE000CEFB04F10B00231D20F00700C31A1BD0FD
:102BF0005A42E25070BD8C420DBF63684B686360FF
:102C0000136018BF0C46E9E70C464968CAE7C41CC4
:102C100024F00304A04205D0211A304600F086F8C3
:102C20000130CDD02560D9E770BD00BFFC00002089
:102C3000000100200FB40A4B13B51C6824B1A3692E
:102C400013B9204600F09AFA05AB049AA1680193E3
:102C5000204600F0BFFB02B0BDE8104004B0704752
:102C60005400002070B50E46054618B183690BB9B3
:102C700000F084FAAB69AC6813B9284600F07EFA1C
:102C8000234B9C4217D16C68A3891B071DD5236970
:102C9000DBB1013EA36816F8011F013BA360E9B94F
:102CA000002B2EDA22460A21284600F093F8013044
:102CB00011D00A2070BD174B9C4201D1AC68E3E7EC
:102CC000154B9C4208BFEC68DEE72146284600F021
:102CD000E5F80028DDD04FF0FF3070BD002B04DA9E
:102CE000A269934206DB0A2904D023685A1C226099
:102CF0001970CFE72246284600F06CF80130C9D1A0
:102D0000E9E723680A205A1C2260187070BD00BFD2
:102D1000703B0008903B0008503B0008024B014606
:102D20001868FFF79FBF00BF5400002038B5064C5D
:102D30000023054608462360FEF770FF431C02D1BE
:102D4000236803B12B6038BDA403002010B50C46E6
:102D5000B1F90E1000F0EAFD0028ABBF636DA38946
:102D60001B1823F48053ACBF6365A38110BD2DE90C
:102D7000F0411F468B89DB0505460C46164605D5F6
:102D800002230022B1F90E1000F082FAA389B4F9EF
:102D90000E1023F48053A38132463B462846BDE8FB
:102DA000F04100F069B810B50C46B1F90E1000F012
:102DB0006FFA431CA38915BF606523F4805343F465
:102DC0008053A38118BFA38110BDB1F90E1000F08C
:102DD000D3B80000F8B50E461446054618B183690D
:102DE0000BB900F0CBF9214B9C422AD16C68A36946
:102DF000A360A3891A072ED5236963B323692068CA
:102E0000C01A6369F6B29842374604DB2146284669
:102E100000F04AF928BBA368013BA36023685A1C51
:102E200022601E7063690130984204D0A389DB07D9
:102E300019D50A2E17D12146284600F035F990B150
:102E40000FE00B4B9C4201D1AC68D0E7094B9C4290
:102E500008BFEC68CBE72146284600F01FF80028A1
:102E6000CCD04FF0FF373846F8BD00BF703B0008AC
:102E7000903B0008503B000838B5074C0546084613
:102E80001146002222601A46FEF756FC431C02D16E
:102E9000236803B12B6038BDA4030020324B70B50A
:102EA0001D6806460C4625B1AB6913B9284600F0EB
:102EB00065F92E4B9C420FD16C68B4F90C309AB274
:102EC00015072CD4D00611D40922326043F04003F8
:102ED000A3814FF0FF3070BD254B9C4201D1AC68FF
:102EE000EBE7244B9C4208BFEC68E6E7510712D59C
:102EF000616B41B104F14403994202D03046FFF7BF
:102F0000EDFD00236363A38923F02403A381002341
:102F1000636023692360A38943F00803A3812369C5
:102F20004BB9A38903F42073B3F5007F03D0214686
:102F3000304600F0E3F9A28912F001030CD000231F
:102F4000A36063695B42A361236953B9B4F90C3090
:102F500013F08000BAD170BD920758BF6369A360B7
:102F6000F2E70020F7E700BF54000020703B0008A4
:102F7000903B0008503B000838B5064C002305463E
:102F800008462360FEF764FE431C02D1236803B1A8
:102F90002B6038BDA40300208A892DE9F041054645
:102FA00010070C465AD44B68002B05DC0B6C002B29
:102FB00002DC0020BDE8F081E66A002EF9D0002393
:102FC00012F480522F682B6033D0606DA3895A07AA
:102FD00005D56368C01A636B0BB1236CC01A00235C
:102FE0000246E66A216A2846B047431CA38906D1F7
:102FF00029681D294BD82B4ACA40D60747D500223D
:103000006260D9042269226004D5421C01D12B6878
:1030100003B96065616B2F600029CAD004F14403D5
:10302000994202D02846FFF759FD00206063BDE8B1
:10303000F081216A01232846B047411CC6D12B6884
:10304000002BC3D01D2B01D0162B01D12F60B0E770
:10305000A38943F04003A381BDE8F0810F69002FED
:10306000A7D093070E6808BF4B690F6018BF0023F5
:10307000A6EB07088B60B8F1000F9ADD43463A468D
:10308000216AA66A2846B047002807DCA38943F0D6
:103090004003A3814FF0FF30BDE8F0810744A8EB67
:1030A0000008E8E70100402038B50B6905460C46EA
:1030B000DBB118B183690BB900F060F80C4B9C428E
:1030C00009D16C68B4F90C307BB121462846BDE8C3
:1030D0003840FFF761BF074B9C4201D1AC68F1E774
:1030E000054B9C4208BFEC68ECE7002038BD00BFF0
:1030F000703B0008903B0008503B0008014900F07D
:10310000A9B800BFA9300008002310B50446036029
:103110004360836081814366C2810361436183614F
:10312000194608225C30FFF7D1FC054B6362054B62
:10313000A362054BE362054B2462236310BD00BF0D
:103140004D2D00086F2D0008A72D0008CB2D00087D
:1031500070B54A1E682555430E4605F17401FFF708
:103160000BFD044640B1002180E842000C30A06015
:1031700005F16802FFF7AAFC204670BD836910B50F
:10318000044633BB8364C3640365124B124A1B6855
:103190008262984204BF0123836100F01FF86060DF
:1031A000204600F01BF8A060204600F017F800222F
:1031B000E06004216068FFF7A7FF01220921A068F1
:1031C000FFF7A2FF02221221E068FFF79DFF012313
:1031D000A36110BD4C3B0008FD300008F8B51C4B46
:1031E0001E68B369074613B93046FFF7C7FF483674
:1031F000B4687368013B03D5336833B13668F7E7C9
:10320000B4F90C506DB16834F4E704213846FFF787
:103210009FFF30600028F1D10C233B60044620461C
:10322000F8BD4FF6FF73E3810123A3816566256036
:10323000A560656025616561A5610822294604F1E4
:103240005C00FFF743FC6563A563A564E564E6E7FE
:103250004C3B00082DE9F8438046894600F14804BC
:10326000002614B93046BDE8F883A5686768013FB9
:1032700001D52468F5E7AB89012B07D9B5F90E30E4
:10328000013303D029464046C84706436835EEE778
:1032900038B5074C054608461146002222601A46FA
:1032A000FEF7E0FC431C02D1236803B12B6038BD5C
:1032B000A403002070B50E46B1F90E10002990B09D
:1032C00014461D4607DA00232B60B3891A0610D472
:1032D0004FF480630EE001AA00F03AFB0028F2DB15
:1032E000029A02F47042A2F500535A425A412A60EF
:1032F000EEE740230020236010B070BD8B8973B5CA
:103300009D0706460C4607D504F147032360236159
:103310000123636102B070BD01AB6A46FFF7CAFFCB
:10332000009905463046FFF727FC48B9B4F90C3040
:103330009A05EFD423F0030343F00203A381E3E7EC
:103340000D4BB362A389206043F08003A381009BEF
:103350006361019B20615BB1B4F90E10304600F04F
:1033600009FB28B1A38923F0030343F00103A381E0
:10337000A3891D43A581CDE7FD3000087047704744
:103380009368013B002B10B4936009DA9469A3425F
:1033900002DBCBB20A2B03D15DF8044BFFF71ABD59
:1033A0001368581C10601970C8B25DF8044B704760
:1033B000F8B506460F461446D518AC4201D1002098
:1033C00007E03A4614F8011B3046FFF7D9FF431CCB
:1033D000F3D1F8BD2DE9F04F9DB00C46174603938D
:1033E000064618B183690BB9FFF7C8FE7C4B9C42B7
:1033F00057D17468A38918075DD52369002B5AD06B
:103400000023099320238DF8293030238DF82A30AA
:103410004FF0010BB846454615F8013B002B55D13E
:10342000B8EB070A0BD053463A4621463046FFF721
:10343000BFFF013000F0C480099B5344099398F802
:103440000030002B00F0BC8000234FF0FF320493CB
:103450000793059206938DF853301A930522297825
:103460006048FCF7C5FE05F10108049B002831D136
:10347000D90644BF20228DF853201A0744BF2B22BF
:103480008DF853202A782A2A2CD0079A00210A2066
:10349000A846013598F80030303B092B6DD971B33F
:1034A00026E0514B9C4201D1B468A3E74F4B9C42AC
:1034B00008BFF4689EE721463046FFF7EFFC00287E
:1034C0009ED04FF0FF301DB0BDE8F08F252BA7D068
:1034D000A846A0E7434A801A0BFA00F0184304906C
:1034E0004546BBE7039A111D12680391002A01DBD0
:1034F000079204E0524243F002030792049398F8C3
:1035000000302E2B10D198F801302A2B08F1010140
:1035100037D1039B1A1D1B680392002BB8BF4FF0D5
:10352000FF3308F102080593314D98F8001003228B
:103530002846FCF75DFE40B14023401B03FA00F033
:10354000049B0343049308F1010898F800102948EC
:103550008DF82810062208F10107FCF749FE002823
:1035600034D0254B03BB039B073323F007030833F9
:103570000393099B4B4409934CE700FB0232012162
:1035800086E70023059318460A258846013198F8F6
:103590000020303A092A03D9002BC5D00590C3E793
:1035A00005FB00200123F0E703AB00932246134BF9
:1035B00004A93046AFF30080B0F1FF3F8146D8D177
:1035C000A3895B063FF57DAF09987CE703AB0093C9
:1035D00022460A4B04A9304600F088F8ECE700BF09
:1035E000703B0008B03B0008903B0008503B0008CF
:1035F000B63B0008BA3B000800000000B1330008E9
:103600002DE9F04791461F468A680B69DDF8208056
:103610009342B8BF1346C9F8003091F843200646DC
:103620000C4612B10133C9F800302368990642BF35
:10363000D9F800300233C9F80030256815F00605C6
:1036400007D104F1190AE368D9F800209B1A9D42BA
:1036500029DB94F843302268003318BF0123920617
:103660002ED404F1430239463046C047013021D000
:103670002368E568D9F8002003F00603042B08BF8F
:10368000AD1AA36822690CBF25EAE57500259342AF
:10369000C4BF9B1AED184FF000091A344D451BD1D9
:1036A0000020BDE8F0870123524639463046C04726
:1036B000013003D14FF0FF30BDE8F0870135C2E79C
:1036C000E1185A1C302081F84300224494F8451038
:1036D00082F843100233C4E70123224639463046BC
:1036E000C0470130E6D009F10109D7E72DE9F043E1
:1036F00017460A7E85B06E2A984606460C460C9BF5
:1037000001F1430E00F0BC801AD8632A2ED00AD8EB
:10371000002A00F0C880582A00F08A8004F142058F
:1037200084F842202AE0642A01D0692AF6D121686F
:103730001A6811F0800F23D0111D1960136827E05B
:10374000732A00F0B48008D86F2A2AD0702AE5D1F5
:103750000A6842F020020A6003E0752A21D0782A24
:10376000DCD1782284F845206E4964E01A6801F1C2
:103770004205111D1960136884F842300123A3E04B
:1037800011F0400F02F104011960D7D0B2F90030F6
:10379000002B03DA2D225B4284F8432062490A227F
:1037A00017E02068196810F0800F03D0081D18601A
:1037B0000B6806E010F0400F01F104001860F7D02C
:1037C0000B8859496F2A14BF0A220822002084F866
:1037D00043006568A560002DC0F29C80206820F041
:1037E00004002060002B3FD1002D40F095807546ED
:1037F000082A0BD12368DA0708D5236962689A4240
:10380000DEBF302305F8013C05F1FF35AEEB0503C3
:103810002361CDF800803B4603AA21463046FFF7DE
:10382000EFFE013055D14FF0FF3005B0BDE8F08319
:1038300081F845203C492268186812F0800F00F199
:1038400004051D6001D0036802E05506FBD503881E
:10385000D00744BF42F0200222601BB9226822F048
:10386000200222601022B1E77546B3FBF2F002FBA2
:103870001033CB5C05F8013D03460028F5D1B7E7CE
:1038800008681A68496910F0800F04D0101D18608C
:103890001368196007E010F0400F02F1040018608F
:1038A0001368F6D01980002323617546B1E71A68C2
:1038B000111D19601568626800212846FCF798FC04
:1038C00008B1401B606063682361002384F84330C3
:1038D0009FE723692A4639463046C0470130A2D0C7
:1038E00023689B0707D5002504F11909E368039AAB
:1038F0009B1A9D4205DBE068039B9842B8BF1846BF
:1039000093E701234A4639463046C04701308AD002
:103910000135EBE7002BA7D10B7884F8423004F196
:10392000420565E7D23B0008C13B000838B5074CAB
:10393000054608461146002222601A46FEF760F945
:10394000431C02D1236803B12B6038BDA4030020BF
:1039500038B5074C00230546084611462360FEF79C
:103960007AF9431C02D1236803B12B6038BD00BF34
:10397000A403002038B5064C002305460846236002
:10398000FEF76EF9431C02D1236803B12B6038BDEA
:10399000A4030020F8B500BFF8BC08BC9E467047E1
:0C39A000F8B500BFF8BC08BC9E4670479C
:1039AC0002020202020202020202020202020202EB
:1039BC0057495A4348495020496E697469616C698A
:1039CC007A6564206661696C2E0D0A00556E6B6E0B
:1039DC006F776E20504859204C696E6B2073746160
:1039EC007475732E0D0A0048656C6C6F2120573569
:1039FC00353030206C6F6F706261636B205379735C
:103A0C0074656D200D00726574203D2025642C209A
:103A1C00627566203D2025585B25735D0D0A006498
:103A2C00617461203D2030783561200D004D61635B
:103A3C0020616464726573733A20253032783A25BC
:103A4C003032783A253032783A253032783A25308F
:103A5C0032783A253032780A0D004950206164647E
:103A6C0072657373203A2025642E25642E25642EEE
:103A7C0025640A0D00534D204D61736B09202020E5
:103A8C003A2025642E25642E25642E25640A0D000B
:103A9C0047617465207761792020203A2025642EB7
:103AAC0025642E25642E25640A0D00444E532053A4
:103ABC006572766572203A2025642E25642E256465
:103ACC002E25640A0D000000000000000000010219
:103ADC000304060708090000000001020304256422
:103AEC003A436F6E6E6563746564202D2025642ED9
:103AFC0025642E25642E2564203A2025640D0A00A9
:103B0C0025643A536F636B657420436C6F73656403
:103B1C000D0A0025643A4C697374656E2C2054436D
:103B2C005020736572766572206C6F6F7062616382
:103B3C006B2C20706F7274205B25645D0D0A000085
:103B4C0058000020000000000000000000000000F1
:103B5C000000000000000000000000000000000059
:103B6C000000000000000000000000000000000049
:103B7C000000000000000000000000000000000039
:103B8C000000000000000000000000000000000029
:103B9C000000000000000000000000000000000019
:103BAC0000000000232D302B2000686C4C00656653
:103BBC006745464700303132333435363738394172
:103BCC004243444546003031323334353637383988
:083BDC0061626364656600008C
:083BE400DCC6FF7F01000000B8
:043BEC00C501000807
:043BF000A101000827
:103BF40001000000100000000008DCFFEEDDC0A89A
:103C04000082FFFFFF00DE62ADFE08080808010025
:103C14000024F40000C000000102573535303000A4
:103C240000000000712500087325000875250008B0
:103C340061250008632500086725000800000000CE
:103C4400000000005800002000000000703B000845
:103C5400903B0008503B00080000000000000000FA
:103C64000000000000000000000000000000000050
:103C74000000000000000000000000000000000040
:103C84000000000000000000000000000000000030
:103C94000000000000000000000000000000000020
:083CA400000000000000000018
:0400000508002A25A0
:00000001FF
